:100000000C942A000C9447000C9447000C94470071
:100010000C9447000C9447000C9447000C94470044
:100020000C9447000C9447000C9447000C94470034
:100030000C9447000C9447000C9447000C94470024
:100040000C9447000C9447000C9447000C94470014
:100050000C94470011241FBECFE5D8E0DEBFCDBF12
:1000600010E0A0E6B0E0EAE4FEE002C005900D92E8
:10007000A63DB107D9F720E0A6EDB0E001C01D9282
:10008000AE3FB207E1F70E942F050C9423070C94B2
:10009000000041E650E063E081E00E94CD044DE6BF
:1000A00050E061E082E00E94CD042FEF8DE399E4FF
:1000B000215080409040E1F700C000000C94CA0439
:1000C000CF92DF92EF92FF92CF931092D8000E94CE
:1000D000D60280936000843509F48EC08D3309F414
:1000E0008BC0833409F471C01092DA008091E00073
:1000F000811129C00E94CA0461E081E00E94BC0411
:1001000081E08093E0001092DD001092D700109201
:10011000D6008091DF008130B1F48091600096EDCF
:10012000980F923018F08D7F8D3269F46091FA004B
:100130007091FB008091FC009091FD000E944D04A5
:1001400082E08093DF009091E10080916000911146
:1001500009C08D3239F48093E30091E09093E1007F
:100160009093DD009091DB00913021F09091DE00C2
:10017000911106C096ED980F923018F18F32E1F18F
:100180008D3291F48091D900811136C08091DD00CB
:10019000843691F18091D700823070F58091D6003D
:1001A000833051F18DE208C09091D700923048F42D
:1001B0009091D600933029F00E94380481E080931A
:1001C000D800809160008334B9F40E94CA04109270
:1001D000E1001092DC001092DD001092DB00109222
:1001E000DE001092DA001092D90081E08093E000E6
:1001F0001092D7001092D600809160008D3309F0E4
:10020000E4C08091DE00813009F0DFC08091DA0027
:100210008111DBC0E091E100F0E0ED51FF4F108271
:100220008091DC0081110DC083EE90E00E94D70424
:100230006093FA007093FB008093FC009093FD00A4
:100240000CC083EE90E00E94D7046093F600709398
:10025000F7008093F8009093F9001092E10061E0BC
:1002600082E00E94BC048091DC00811109C0809171
:10027000FA009091FB00A091FC00B091FD003AC003
:10028000813009F077C08091E200C090F600D090F4
:10029000F700E090F800F090F9008B3209F456C0B6
:1002A000C0F48A3209F052C02091FA003091FB006C
:1002B0004091FC005091FD00C701B6010E94B806B4
:1002C0006093F2007093F3008093F4009093F50034
:1002D00051C08D3219F08F32B1F038C08091FA00E0
:1002E0009091FB00A091FC00B091FD008C199D093C
:1002F000AE09BF098093F2009093F300A093F4003D
:10030000B093F50037C0C114D104E104F10449F4FD
:100310008EE790E00E943A041092E0001092DE0016
:100320004EC06091FA007091FB008091FC009091AA
:10033000FD00A70196010E94EA062093F200309387
:10034000F3004093F4005093F50014C08091FA003C
:100350009091FB00A091FC00B091FD00C80ED91E49
:10036000EA1EFB1EC092F200D092F300E092F4006D
:10037000F092F5001092DC006091F2007091F300B1
:100380008091F4009091F5000E944D048091F2005C
:100390009091F300A091F400B091F5008093FA00E1
:1003A0009093FB00A093FC00B093FD0081E080934C
:1003B000DF001092E0008093DA001092E1001092CA
:1003C000DD001092DB001092D9008091D8008130BE
:1003D00009F0A7C08091600096ED980F923008F464
:1003E0004AC08F3209F447C08D3209F09AC080911B
:1003F000E300C091DD008D3279F4C130E1F58091E8
:10040000DF008230C1F18091D6008230A1F11092DC
:10041000DB00C093D9002BC0C13069F58091DF00AB
:10042000823049F18091DB0081111CC0E091E10034
:10043000F0E0ED51FF4F108283EE90E00E94D70470
:100440006093FA007093FB008093FC009093FD0092
:10045000C093DC00809160008093E2001092D9008C
:100460001092E10081E08093DB008091D6008F5FE5
:100470008093D6004FC08091D600823009F44EC0E0
:100480008091DB00811135C0E091E100F0E0ED5199
:10049000FF4F10828091DF00823099F48091F2004A
:1004A0009091F300A091F400B091F5008093FA00D0
:1004B0009093FB00A093FC00B093FD001092DF002E
:1004C0000CC083EE90E00E94D7046093FA00709312
:1004D000FB008093FC009093FD0081E08093DC00A2
:1004E00084E68093DD00809160008093E2001092AA
:1004F000E10081E08093DB008091D7008F5F8093E3
:10050000D7009091D6009F5F9093D600823010F470
:100510001092D9008091D600823019F481E0809346
:10052000DB009091600080ED890F8A3088F4109292
:10053000D9001092DD008091E100E82FF0E0ED514C
:10054000FF4F90838F5F8093E10081E08093DE0016
:10055000CF91FF90EF90DF90CF900895CF93DF93EE
:10056000C0E0D0E0FE01E355FF4F9081892F8F73EB
:1005700096FD02C061E001C060E00E941C06219669
:10058000C330D10579F7DF91CF91089561E08CE018
:100590000E941C0661E08DE00E941C0661E08EE076
:1005A0000E941C0661E08FE00C941C069F92AF92A3
:1005B000BF92CF92DF92EF92FF920F931F93CF9350
:1005C000DF9394EBC92E90E0D92EC8EBD0E024E560
:1005D000F22EF601E1906F0160E08E2D0E941C0664
:1005E00080EBA82E80E0B82E00E010E0F50191909D
:1005F0005F01892D0E949B06811115C0FE01E00F4D
:10060000F11FF0808FE19EE40197F1F700C0000038
:10061000892D0E949B068823D9F3EFE1FEE43197F0
:10062000F1F700C000000F5F1F4F04301105F1F615
:1006300061E08E2D0E941C062496F0E0C83CDF0786
:1006400041F68F2DDF91CF911F910F91FF90EF9089
:10065000DF90CF90BF90AF909F900895AF92BF92E0
:10066000DF92EF92FF920F931F93CF93DF93982F18
:100670009F70D92EC82FC295CF7060E081E00E9494
:100680001C068EECE82E80E0F82E570103E010E007
:10069000D0E0BE01002E02C0759567950A94E2F77E
:1006A0006170F50182915F010E941C0601501109E1
:1006B00080F761E082E00E941C068FEC97E00197D2
:1006C000F1F700C0000060E082E00E941C06EFEC41
:1006D000F7E03197F1F700C00000C3E0D0E00D2D46
:1006E00010E0B8010C2E02C0759567950A94E2F7E8
:1006F0006170F70182917F010E941C06219788F7A3
:1007000061E082E00E941C068FEC97E00197F1F710
:1007100000C0000060E082E00E941C06EFECF7E001
:100720003197F1F700C00000DF91CF911F910F9139
:10073000FF90EF90DF90BF90AF900895AF92BF927F
:10074000DF92EF92FF920F931F93CF93DF93982F37
:100750009F70D92EC82FC295CF7061E081E00E94B2
:100760001C068EECE82E80E0F82E570103E010E026
:10077000D0E0BE01002E02C0759567950A94E2F79D
:100780006170F50182915F010E941C060150110900
:1007900080F761E082E00E941C068FEC97E00197F1
:1007A000F1F700C0000060E082E00E941C06EFEC60
:1007B000F7E03197F1F700C00000C3E0D0E00D2D65
:1007C00010E0B8010C2E02C0759567950A94E2F707
:1007D0006170F70182917F010E941C06219788F7C2
:1007E00061E082E00E941C068FEC97E00197F1F730
:1007F00000C0000060E082E00E941C06EFECF7E021
:100800003197F1F700C00000DF91CF911F910F9158
:10081000FF90EF90DF90BF90AF9008952FE788E3AF
:1008200091E0215080409040E1F700C0000082E05C
:100830000E942E0388E20E942E038FEC97E001971E
:10084000F1F700C000008CE00E942E038FEC97E0CF
:100850000197F1F700C0000081E00E942E038FE0B5
:1008600097E20197F1F700C0000086E00C942E0398
:100870000C949E030F931F93CF938C01C0E0F8015B
:10088000EC0FF11D8081882321F00E949E03CF5F31
:10089000F6CFCF911F910F9108954F925F926F9273
:1008A0007F92AF92BF92CF92DF92EF92FF921F930F
:1008B000CF93DF93CDB7DEB764970FB6F894DEBF62
:1008C0000FBECDBF6B017C016115710581059105DE
:1008D00029F480E30E949E0310E02AC097FF0BC01A
:1008E0008DE20E949E03F094E094D094C094C11CC9
:1008F000D11CE11CF11C10E09AE0492E512C612C16
:10090000712CAA24A394B12CAC0EBD1EA10EB11C57
:10091000C701B601A30192010E94EA06F5016083B6
:1009200069017A011F5FC114D104E104F10449F7A0
:10093000115017FD0DC0E1E0F0E0EC0FFD1FE10FDD
:10094000F11D17FDFA958081805D0E949E03F0CF16
:1009500064960FB6F894DEBF0FBECDBFDF91CF9186
:100960001F91FF90EF90DF90CF90BF90AF907F905E
:100970006F905F904F900895813021F48FEF860F34
:10098000806805C0823029F48FEF860F806C0C944C
:100990002E03089581E00C942E03CF93DF93EA0198
:1009A0000E94BC04CE01DF91CF910C943A04CF9207
:1009B000DF92EF92FF921F93CF93DF93EC011881A8
:1009C000F1E01D3209F0F0E060E070E0CB01DE0103
:1009D000AF0FB11DEC91EE23C9F020ED2E0F2A30A0
:1009E00098F4AAE0B0E09B01AC010E9409074E2FE9
:1009F00050E09A01205331096901330FEE08FF08D6
:100A00006C0D7D1D8E1D9F1DFF5FE1CF1D3239F4E2
:100A100090958095709561957F4F8F4F9F4FDF9197
:100A2000CF911F91FF90EF90DF90CF900895CF93DB
:100A3000DF93C0E0D0E0FE01E253FF4F9081892FA9
:100A40008F7396FF02C060E001C061E00E941C0647
:100A50002196C730D10579F7DF91CF9108950E9493
:100A60003E050E9417050E94AE020E940E040E94DD
:100A7000C6020E9449000E946000FDCFEDE8F0E050
:100A800040E081E090E05191342F369536953695CF
:100A9000242F2770513009F443C020F0523009F45C
:100AA00082C0C5C0323001F1333061F1313071F0B4
:100AB0005AB3BC0102C0660F771F2A95E2F79B016B
:100AC000352F322B3ABB3BB320953DC057B3BC0109
:100AD00002C0660F771F2A95E2F79B01352F322B54
:100AE00037BB38B320953EC054B3BC0102C0660F7B
:100AF000771F2A95E2F79B01352F322B34BB35B394
:100B000020953FC051B3BC0102C0660F771F2A95E4
:100B1000E2F79B01352F322B31BB32B3209541C018
:100B2000323011F1333081F1313079F05AB3BC01F8
:100B300002C0660F771F2A95E2F79B012095352F9B
:100B400032233ABB3BB3232342C057B3BC0102C09C
:100B5000660F771F2A95E2F79B012095352F3223E8
:100B600037BB38B3232343C054B3BC0102C0660F64
:100B7000771F2A95E2F79B012095352F322334BB4E
:100B800035B3232325BB53C051B3BC0102C0660F4C
:100B9000771F2A95E2F79B012095352F322331BB31
:100BA00032B3232343C0323021F1333089F1313065
:100BB00081F05AB3BC0102C0660F771F2A95E2F795
:100BC0009B01362F309535233ABB3BB3232B2BBBF0
:100BD0002EC057B3BC0102C0660F771F2A95E2F7FB
:100BE0009B01362F3095352337BB38B3232B28BBD9
:100BF0001EC054B3BC0102C0660F771F2A95E2F7EE
:100C00009B01362F3095352334BB35B3232BBACF18
:100C100051B3BC0102C0660F771F2A95E2F79B0112
:100C2000362F3095352331BB32B3232B22BB4F5F98
:100C3000403209F028CF0895982F9695969596956D
:100C400087706130C1F5913091F028F09230D9F081
:100C5000933029F108954BB321E030E0B90102C08F
:100C6000660F771F8A95E2F7CB01842B38C048B313
:100C700021E030E0B90102C0660F771F8A95E2F7E4
:100C8000CB01842B3AC045B321E030E0B90102C06A
:100C9000660F771F8A95E2F7CB01842B3CC042B3E5
:100CA00021E030E0B90102C0660F771F8A95E2F7B4
:100CB000CB01842B3EC09130A1F028F09230F9F0A6
:100CC000933059F108954BB321E030E0B90102C0EF
:100CD000660F771F8A95E2F7CB01809584238BBB43
:100CE000089548B321E030E0B90102C0660F771FD4
:100CF0008A95E2F7CB018095842388BB089545B39C
:100D000021E030E0B90102C0660F771F8A95E2F753
:100D1000CB018095842385BB089542B321E030E068
:100D2000B90102C0660F771F8A95E2F7CB01809563
:100D3000842382BB0895282F2770869586958695F3
:100D4000813049F030F0823041F0833079F480B363
:100D500005C089B303C086B301C083B390E002C06D
:100D6000959587952A95E2F78170089580E008951A
:100D7000DB018F939F930E940907BF91AF91A29FC0
:100D8000800D911DA39F900DB29F900D1124089589
:100D9000A1E21A2EAA1BBB1BFD010DC0AA1FBB1F7F
:100DA000EE1FFF1FA217B307E407F50720F0A21BF1
:100DB000B30BE40BF50B661F771F881F991F1A945E
:100DC00069F760957095809590959B01AC01BD0188
:100DD000CF010895052E97FB1EF400940E94010791
:100DE00057FD07D00E94C80607FC03D04EF40C94B0
:100DF000010750954095309521953F4F4F4F5F4FDC
:100E0000089590958095709561957F4F8F4F9F4F76
:100E100008950E941407A59F900DB49F900DA49F64
:100E2000800D911D11240895A29FB001B39FC001B0
:100E3000A39F700D811D1124911DB29F700D811D06
:0A0E40001124911D0895F894FFCFCE
:100E4A00543C3C57454C434F4D453E3E0043616C34
:100E5A0063756C61746F722050726F672000436112
:100E6A006E277420646976204279203000000000E1
:100E7A000000000000000000000000000000000068
:100E8A00000202020200000202020201011415001D
:100E9A001A1B1C1D0C0D0E0F3738392F3435362A04
:100EAA003132332D43303D2B020103040506494AF2
:060EBA004B4C4D4E4F00B1
:00000001FF
